:100000000C942A000C943F000C943F000C943F0089
:100010000C943F000C943F000C943F000C943F0064
:100020000C943F000C943F000C943F000C943F0054
:100030000C943F000C943F000C943F000C943F0044
:100040000C943F000C943F000C943F000C943F0034
:100050000C943F0011241FBECFE5D8E0DEBFCDBF1A
:1000600010E0A0E6B0E0E0E8F1E002C005900D92FB
:10007000A237B107D9F70E94B7000C94BE000C94C8
:100080000000C39A83ED90E30197F1F700C00000F0
:10009000C39808958AB31ABAC198C29A0E944100BF
:1000A000C2988AB38FEF8ABB0895CF93C82F0E945E
:1000B0004A00CBBB88B3817F88BB0E944100CF91AF
:1000C0000895CF93C82F0E944A00C19AC298CBBB13
:1000D0000E944100CF9108950F931F93CF93DF9318
:1000E000D82FC92F0E944A00C19A88B3837F88BB4A
:1000F0000D2F1C2FC0E0D0E009C00E9461002196A6
:10010000C031D10519F480EC0E945500F8018191AD
:100110008F018111F2CFDF91CF911F910F9108953F
:1001200081E00E945500089587E893E10197F1F777
:1001300000C000008FEF8ABB87B38E6087BB88B397
:10014000817F88BB85EA9EE00197F1F700C000003F
:100150000E94900088E30E94550086E00E945500AE
:1001600080E80E9455008FE00E94550008950E948B
:10017000940080E690E00E946C00FFCFF894FFCFDF
:10018000416C69204D75737461666120656E61799B
:0201900061000C
:00000001FF
