S00D00004C616220322E73726563B6
S11300000C942A000C9434000C9434000C943400A6
S11300100C9434000C9434000C9434000C9434008C
S11300200C9434000C9434000C9434000C9434007C
S11300300C9434000C9434000C9434000C9434006C
S11300400C9434000C9434000C9434000C9434005C
S11300500C94340011241FBECFE5D8E0DEBFCDBF21
S11300600E9436000C944D000C94000088988F9ADE
S11300709098909880E090E030E020E051E040E0FB
S113008002C0832F922F809BFCCF0097E1F782B3AD
S1110090805882BB852F942FF6CFF894FFCFB3
S9030000FC
