:100000000C942A000C9434000C9434000C943400AA
:100010000C9434000C9434000C9434000C94340090
:100020000C9434000C9434000C9434000C94340080
:100030000C9434000C9434000C9434000C94340070
:100040000C9434000C9434000C9434000C94340060
:100050000C94340011241FBECFE5D8E0DEBFCDBF25
:100060000E9436000C9478000C94000085E090E02B
:1000700061E070E021B3206E21BB88309105BCF4B3
:1000800042B39B01082E02C0220F331F0A94E2F7ED
:10009000242B22BB2FEF32E547E021503040404077
:1000A000E1F700C0000001968830910549F7979864
:1000B0008FEF92E527E0815090402040E1F700C0AB
:1000C000000096983FEF42E587E031504040804085
:1000D000E1F700C0000095989FEF22E537E09150CE
:1000E00020403040E1F700C0000084E090E0C2CF43
:0400F000F894FFCFB2
:00000001FF
