:020000040800F2
:100000000010002091010008E1010008E101000852
:1000100000000000000000000000000000000000E0
:10002000000000000000000000000000E1010008E6
:100030000000000000000000E1010008E1010008EC
:10004000E1010008E1010008E1010008E101000808
:10005000E1010008E1010008E1010008E1010008F8
:1000600000000000E1010008E1010008E1010008D2
:10007000E1010008E1010008E101000800000000C2
:10008000E1010008E101000800000000E1010008B2
:10009000E1010008E1010008E1010008E1010008B8
:1000A000E1010008E1010008E1010008E1010008A8
:1000B000E1010008E101000800000000E101000882
:1000C00010B5064C2378002B07D1054B002B02D02E
:1000D000044800E000BF0123237010BD0000002091
:1000E000000000002C020008044B10B5002B03D0C8
:1000F0000349044800E000BF10BDC04600000000F6
:10010000040000202C02000880B582B000AF1A4B1A
:100110001A68194B04210A431A60184B1A68174BC6
:1001200017490A401A60154B1A68144B802189033D
:100130000A431A60134B1A68124B802189010A4343
:100140001A6000237B6002E07B6801337B607B6880
:100150000D4A9342F8DD0B4B1A680A4B0B490A40D3
:100160001A6000233B6002E03B6801333B603B6860
:10017000054A9342F8DDDDE718100240040801400B
:10018000FFFF0FFF0C08014087130000FFDFFFFF98
:100190000D48854600E000BF0C480D490D4A00237C
:1001A00002E0D458C4500433C4188C42F9D30A4A2C
:1001B0000A4C002301E013600432A242FBD300F09A
:1001C00011F8FFF7A1FFFEE700100020000000205B
:1001D000000000204C020008000000201C0000204D
:1001E000FEE7000070B500260C4D0D4C641BA410FA
:1001F000A64209D1002600F019F80A4D0A4C641BEA
:10020000A410A64205D170BDB300EB589847013643
:10021000EEE7B300EB5898470136F2E744020008D6
:10022000440200084402000848020008F8B5C0462D
:10023000F8BC08BC9E467047F8B5C046F8BC08BC80
:040240009E4670471F
:04024400E9000008C5
:04024800C1000008E9
:04000005080001915D
:00000001FF
