:100000000C942A000C943F000C943F000C943F0089
:100010000C943F000C943F000C943F000C943F0064
:100020000C943F000C943F000C943F000C943F0054
:100030000C943F000C943F000C943F000C943F0044
:100040000C943F000C943F000C943F000C943F0034
:100050000C943F0011241FBECFE5D8E0DEBFCDBF1A
:1000600010E0A0E6B0E0EEECF3E002C005900D92E7
:10007000A637B107D9F70E94B9010C94E5010C9499
:10008000000081B3807F81BB81B3806F81BB8FEF24
:1000900082BB0895EF92FF920F931F93CF93DF934C
:1000A0000F2EF0E6EF2EF0E0FF2EF02DA0E0B0E0F6
:1000B000F70141E050E092B3BA01008002C0660F40
:1000C000771F0A94E2F79A01018002C0220F331FC2
:1000D0000A94E2F7262B822F892B9A01028002C014
:1000E000220F331F0A94E2F7282BCA01038002C0B3
:1000F000880F991F0A94E2F7822B82BB92B3E70123
:100100009A01099002C0220F331F0A94E2F77E0180
:10011000822F8095892382BBC4E6D0E060E070E046
:1001200000E010E002C00F5F1F4F80B329916F5FA6
:100130007F4F90E0022E02C0959587950A94E2F7D2
:1001400080FD4FC0CA0102C0880F991F2A95E2F7AF
:100150009C0180B390E082239323892BD1F3A130BB
:10016000B105C1F01CF4109741F03BC0A230B105BD
:10017000F1F0A330B10541F134C001151105E1F1F1
:1001800001301105D9F102301105D1F1033011050B
:1001900041F538C001151105B9F101301105B1F172
:1001A00002301105A9F103301105D9F433C001154E
:1001B000110591F10130110589F10230110581F12C
:1001C0000330110571F42EC00115110569F10130DC
:1001D000110561F10230110559F10330110561F586
:1001E00029C0643071050CF49ECF1196A430B1057E
:1001F00009F061CF81E425C087E323C084E321C0F7
:1002000081E31FC08FE31DC088E31BC085E319C0D5
:1002100082E317C080E315C089E313C086E311C0F1
:1002200083E30FC08DE30DC08FE20BC08AE209C0EB
:100230008DE207C08BE205C0643071050CF473CF0A
:1002400081E4DF91CF911F910F91FF90EF9008957E
:10025000C39A83ED90E30197F1F700C00000C398C3
:1002600008958AB31ABAC198C29A0E942801C29806
:100270008AB38FEF8ABB0895CF93C82F0E943101B4
:10028000CBBB88B3817F88BB0E942801CF910895A2
:10029000CF93C82F0E943101C19AC298CBBB0E9454
:1002A0002801CF9108950F931F93CF93DF93D82FF9
:1002B000C92F0E943101C19A88B3837F88BB0D2F5B
:1002C0001C2FC0E0D0E012C00E9448012196C0312E
:1002D000D10521F480EC0E943C0108C0C032D10558
:1002E00029F480E80E943C01C0E0D0E0F80181914F
:1002F0008F018111E9CFDF91CF911F910F91089567
:1003000081E00E943C01089587E893E10197F1F7AD
:1003100000C000008FEF8ABB87B38E6087BB88B3B5
:10032000817F88BB85EA9EE00197F1F700C000005D
:100330000E94800188E30E943C0186E00E943C010B
:1003400080E80E943C018FE00E943C0108958130CA
:1003500039F4603168F480E8860F0E943C0108950A
:10036000823031F4603120F480EC860F0E943C0131
:1003700008950E9484010E944100C0E0D0E00E94E4
:100380004A008F3319F08134D1F314C060E082E069
:100390000E94A70188E690E00E9453012FEB84EDB4
:1003A00091E0215080409040E1F700C000000E94A1
:1003B0008001E5CF0E944801C031D10521F460E001
:0E03C00082E00E94A7012196DACFF894FFCFC9
:1003CE000405060700010203496E76616C6964201C
:0603DE0076616C756500FC
:00000001FF
